{
    "_format": "hh-sol-artifact-1",
    "contractName": "LamportAccountFactory",
    "sourceName": "contracts/AccountAbstraction/Lamport/LamportAccountFactory.sol",
    "abi": [
        {
            "inputs": [
                {
                    "internalType": "contract IEntryPoint",
                    "name": "_entryPoint",
                    "type": "address"
                }
            ],
            "stateMutability": "nonpayable",
            "type": "constructor"
        },
        {
            "inputs": [],
            "name": "accountCount",
            "outputs": [
                {
                    "internalType": "uint256",
                    "name": "",
                    "type": "uint256"
                }
            ],
            "stateMutability": "view",
            "type": "function"
        },
        {
            "inputs": [],
            "name": "accountImplementation",
            "outputs": [
                {
                    "internalType": "contract LamportAccount",
                    "name": "",
                    "type": "address"
                }
            ],
            "stateMutability": "view",
            "type": "function"
        },
        {
            "inputs": [
                {
                    "internalType": "uint256",
                    "name": "",
                    "type": "uint256"
                }
            ],
            "name": "accounts",
            "outputs": [
                {
                    "internalType": "address",
                    "name": "",
                    "type": "address"
                }
            ],
            "stateMutability": "view",
            "type": "function"
        },
        {
            "inputs": [
                {
                    "internalType": "address",
                    "name": "owner",
                    "type": "address"
                },
                {
                    "internalType": "uint256",
                    "name": "salt",
                    "type": "uint256"
                },
                {
                    "internalType": "bytes32[]",
                    "name": "firstLamportKeys",
                    "type": "bytes32[]"
                }
            ],
            "name": "createAccount",
            "outputs": [
                {
                    "internalType": "contract LamportAccount",
                    "name": "ret",
                    "type": "address"
                }
            ],
            "stateMutability": "nonpayable",
            "type": "function"
        },
        {
            "inputs": [],
            "name": "entryPoint",
            "outputs": [
                {
                    "internalType": "contract IEntryPoint",
                    "name": "",
                    "type": "address"
                }
            ],
            "stateMutability": "view",
            "type": "function"
        },
        {
            "inputs": [],
            "name": "feeBeacon",
            "outputs": [
                {
                    "internalType": "contract FeeBeacon",
                    "name": "",
                    "type": "address"
                }
            ],
            "stateMutability": "view",
            "type": "function"
        },
        {
            "inputs": [
                {
                    "internalType": "address",
                    "name": "owner",
                    "type": "address"
                },
                {
                    "internalType": "uint256",
                    "name": "salt",
                    "type": "uint256"
                },
                {
                    "internalType": "bytes32[]",
                    "name": "firstLamportKeys",
                    "type": "bytes32[]"
                }
            ],
            "name": "getAddress",
            "outputs": [
                {
                    "internalType": "address",
                    "name": "",
                    "type": "address"
                }
            ],
            "stateMutability": "view",
            "type": "function"
        }
    ],
    "bytecode": "0x60e060405234801561001057600080fd5b506040516148ff3803806148ff83398101604081905261002f91610114565b6001600160a01b03811660a052604051819061004a906100fa565b6001600160a01b039091168152602001604051809103906000f080158015610076573d6000803e3d6000fd5b506001600160a01b03166080526040516509184e72a00090734f171744973047296d90e7828676f4972fafb2009081906100af90610107565b9283526001600160a01b039182166020840152166040820152606001604051809103906000f0801580156100e7573d6000803e3d6000fd5b506001600160a01b031660c05250610144565b61357580610f5683390190565b610434806144cb83390190565b60006020828403121561012657600080fd5b81516001600160a01b038116811461013d57600080fd5b9392505050565b60805160a05160c051610dc961018d6000396000818160ee015281816101e901526102f5015260006101160152600081816092015281816101c601526102d20152610dc96000f3fe60806040523480156200001157600080fd5b5060043610620000875760003560e01c8063b0d691fe1162000062578063b0d691fe1462000110578063e4af29fc1462000138578063f2a40db81462000151578063f83e4dab146200017d57600080fd5b806311464fbe146200008c5780632520bc0f14620000d1578063532353ad14620000e8575b600080fd5b620000b47f000000000000000000000000000000000000000000000000000000000000000081565b6040516001600160a01b0390911681526020015b60405180910390f35b620000b4620000e236600462000431565b62000194565b620000b47f000000000000000000000000000000000000000000000000000000000000000081565b620000b47f000000000000000000000000000000000000000000000000000000000000000081565b6200014260015481565b604051908152602001620000c8565b620000b46200016236600462000526565b6000602081905290815260409020546001600160a01b031681565b620000b46200018e36600462000431565b6200029d565b6000620002938360001b60405180602001620001b0906200040d565b6020820181038252601f19601f820116604052507f000000000000000000000000000000000000000000000000000000000000000087867f00000000000000000000000000000000000000000000000000000000000000006040516024016200021c9392919062000540565b60408051601f19818403018152918152602080830180516001600160e01b0316632aab61f160e21b17905290516200025793929101620005cd565b60408051601f198184030181529082905262000277929160200162000611565b60405160208183030381529060405280519060200120620003da565b90505b9392505050565b600080620002ad85858562000194565b90506001600160a01b0381163b8015620002ca5750905062000296565b60008560001b7f000000000000000000000000000000000000000000000000000000000000000088877f0000000000000000000000000000000000000000000000000000000000000000604051602401620003289392919062000540565b60408051601f198184030181529181526020820180516001600160e01b0316632aab61f160e21b179052516200035e906200040d565b6200036b929190620005cd565b8190604051809103906000f59050801580156200038c573d6000803e3d6000fd5b5060018054600090815260208190526040812080546001600160a01b0319166001600160a01b0385161790558154929650869350620003cb8362000644565b91905055505050509392505050565b6000620002968383306000604051836040820152846020820152828152600b8101905060ff815360559020949350505050565b610727806200066d83390190565b634e487b7160e01b600052604160045260246000fd5b6000806000606084860312156200044757600080fd5b83356001600160a01b03811681146200045f57600080fd5b92506020848101359250604085013567ffffffffffffffff808211156200048557600080fd5b818701915087601f8301126200049a57600080fd5b813581811115620004af57620004af6200041b565b8060051b604051601f19603f83011681018181108582111715620004d757620004d76200041b565b60405291825284820192508381018501918a831115620004f657600080fd5b938501935b828510156200051657843584529385019392850192620004fb565b8096505050505050509250925092565b6000602082840312156200053957600080fd5b5035919050565b6001600160a01b038481168252606060208084018290528551918401829052600092868201929091906080860190855b818110156200058e5785518352948301949183019160010162000570565b5050809450505080851660408501525050949350505050565b60005b83811015620005c4578181015183820152602001620005aa565b50506000910152565b60018060a01b03831681526040602082015260008251806040840152620005fc816060850160208701620005a7565b601f01601f1916919091016060019392505050565b6000835162000625818460208801620005a7565b8351908301906200063b818360208801620005a7565b01949350505050565b6000600182016200066557634e487b7160e01b600052601160045260246000fd5b506001019056fe608060405260405161072738038061072783398101604081905261002291610319565b61002e82826000610035565b5050610436565b61003e8361006b565b60008251118061004b5750805b156100665761006483836100ab60201b6100291760201c565b505b505050565b610074816100d7565b6040516001600160a01b038216907fbc7cd75a20ee27fd9adebab32041f755214dbc6bffa90cc0225b39da2e5c2d3b90600090a250565b60606100d08383604051806060016040528060278152602001610700602791396101a9565b9392505050565b6100ea8161022260201b6100551760201c565b6101515760405162461bcd60e51b815260206004820152602d60248201527f455243313936373a206e657720696d706c656d656e746174696f6e206973206e60448201526c1bdd08184818dbdb9d1c9858dd609a1b60648201526084015b60405180910390fd5b806101887f360894a13ba1a3210667c828492db98dca3e2076cc3735a920a3ca505d382bbc60001b61023160201b6100641760201c565b80546001600160a01b0319166001600160a01b039290921691909117905550565b6060600080856001600160a01b0316856040516101c691906103e7565b600060405180830381855af49150503d8060008114610201576040519150601f19603f3d011682016040523d82523d6000602084013e610206565b606091505b50909250905061021886838387610234565b9695505050505050565b6001600160a01b03163b151590565b90565b606083156102a357825160000361029c576001600160a01b0385163b61029c5760405162461bcd60e51b815260206004820152601d60248201527f416464726573733a2063616c6c20746f206e6f6e2d636f6e74726163740000006044820152606401610148565b50816102ad565b6102ad83836102b5565b949350505050565b8151156102c55781518083602001fd5b8060405162461bcd60e51b81526004016101489190610403565b634e487b7160e01b600052604160045260246000fd5b60005b838110156103105781810151838201526020016102f8565b50506000910152565b6000806040838503121561032c57600080fd5b82516001600160a01b038116811461034357600080fd5b60208401519092506001600160401b038082111561036057600080fd5b818501915085601f83011261037457600080fd5b815181811115610386576103866102df565b604051601f8201601f19908116603f011681019083821181831017156103ae576103ae6102df565b816040528281528860208487010111156103c757600080fd5b6103d88360208301602088016102f5565b80955050505050509250929050565b600082516103f98184602087016102f5565b9190910192915050565b60208152600082518060208401526104228160408501602087016102f5565b601f01601f19169190910160400192915050565b6102bb806104456000396000f3fe60806040523661001357610011610017565b005b6100115b610027610022610067565b61009f565b565b606061004e838360405180606001604052806027815260200161025f602791396100c3565b9392505050565b6001600160a01b03163b151590565b90565b600061009a7f360894a13ba1a3210667c828492db98dca3e2076cc3735a920a3ca505d382bbc546001600160a01b031690565b905090565b3660008037600080366000845af43d6000803e8080156100be573d6000f35b3d6000fd5b6060600080856001600160a01b0316856040516100e0919061020f565b600060405180830381855af49150503d806000811461011b576040519150601f19603f3d011682016040523d82523d6000602084013e610120565b606091505b50915091506101318683838761013b565b9695505050505050565b606083156101af5782516000036101a8576001600160a01b0385163b6101a85760405162461bcd60e51b815260206004820152601d60248201527f416464726573733a2063616c6c20746f206e6f6e2d636f6e747261637400000060448201526064015b60405180910390fd5b50816101b9565b6101b983836101c1565b949350505050565b8151156101d15781518083602001fd5b8060405162461bcd60e51b815260040161019f919061022b565b60005b838110156102065781810151838201526020016101ee565b50506000910152565b600082516102218184602087016101eb565b9190910192915050565b602081526000825180602084015261024a8160408501602087016101eb565b601f01601f1916919091016040019291505056fe416464726573733a206c6f772d6c6576656c2064656c65676174652063616c6c206661696c6564a2646970667358221220eadb3f48a33ed3e9e66c6f7b465401411d1058c071ebc26992e468a5ebd3b1e064736f6c63430008120033416464726573733a206c6f772d6c6576656c2064656c65676174652063616c6c206661696c6564a2646970667358221220163d223912a11a9552c93057744e3b024cd9fd01b64e8c992362903d73b8a4da64736f6c6343000812003360c0604052306080523480156200001557600080fd5b506040516200357538038062003575833981016040819052620000389162000123565b6000805462ff0000191690556001600160a01b03811660a0526200005b62000062565b5062000155565b600054610100900460ff1615620000cf5760405162461bcd60e51b815260206004820152602760248201527f496e697469616c697a61626c653a20636f6e747261637420697320696e697469604482015266616c697a696e6760c81b606482015260840160405180910390fd5b60005460ff9081161462000121576000805460ff191660ff9081179091556040519081527f7f26b83ff96e1f2b6a682f133852f6798a09c465da95921460cefb38474024989060200160405180910390a15b565b6000602082840312156200013657600080fd5b81516001600160a01b03811681146200014e57600080fd5b9392505050565b60805160a0516133d0620001a560003960008181610633015281816111fd015261137f015260008181610a5601528181610a9901528181610b8a01528181610bcd0152610c6701526133d06000f3fe6080604052600436106200020e5760003560e01c80635c975abb1162000117578063b0d691fe11620000a7578063c4ae31681162000075578063c4ae316814620006d2578063d087d28814620006ea578063d69d0eea1462000702578063e2982c211462000727578063f23a6e61146200074c57005b8063b0d691fe1462000623578063b61d27f61462000658578063b7ec44b4146200067d578063bc197c8114620006a257005b806388a7ca5c11620000e557806388a7ca5c146200056e5780638da5cb5b14620005b7578063aaad87c414620005d9578063af82f3e714620005fe57005b80635c975abb14620004e15780636c2f1e8a146200050157806375ab978214620002185780637b04a2d0146200052657005b806331b3eb94116200019f5780634e28601c116200016d5780634e28601c14620004255780634f1ef286146200043d57806351416703146200045457806352d1902d14620004a7578063532353ad14620004bf57005b806331b3eb9414620003825780633659cfe614620003a75780633a871cdd14620003cc5780634460dc33146200040057005b80631626ba7e11620001dd5780631626ba7e14620002df57806317499cfb146200030457806318dfb3c714620003385780631d5bd16b146200035d57005b806223de29146200021857806301ffc9a71462000241578063084dbd66146200027b578063150b7a0214620002a057005b366200021657005b005b3480156200022557600080fd5b5062000216620002373660046200217d565b5050505050505050565b3480156200024e57600080fd5b5062000266620002603660046200223a565b6200077c565b60405190151581526020015b60405180910390f35b3480156200028857600080fd5b50620002166200029a36600462002266565b62000835565b348015620002ad57600080fd5b50620002c5620002bf36600462002390565b6200085a565b6040516001600160e01b0319909116815260200162000272565b348015620002ec57600080fd5b50620002c5620002fe36600462002403565b6200086b565b3480156200031157600080fd5b50620002666200032336600462002266565b60056020526000908152604090205460ff1681565b3480156200034557600080fd5b50620002166200035736600462002494565b620008a2565b3480156200036a57600080fd5b50620002166200037c36600462002506565b620009b5565b3480156200038f57600080fd5b5062000216620003a136600462002539565b620009ed565b348015620003b457600080fd5b5062000216620003c636600462002539565b62000a4c565b348015620003d957600080fd5b50620003f1620003eb36600462002559565b62000b35565b60405190815260200162000272565b3480156200040d57600080fd5b50620002166200041f36600462002648565b62000b61565b3480156200043257600080fd5b50620003f160025481565b620002166200044e36600462002680565b62000b80565b3480156200046157600080fd5b506200048e6200047336600462002266565b6000908152600660205260409020546001600160a01b031690565b6040516001600160a01b03909116815260200162000272565b348015620004b457600080fd5b50620003f162000c5a565b348015620004cc57600080fd5b506003546200048e906001600160a01b031681565b348015620004ee57600080fd5b5060005462010000900460ff1662000266565b3480156200050e57600080fd5b50620002166200052036600462002648565b62000d10565b3480156200053357600080fd5b50620002c562000545366004620026bd565b7f7b04a2d00e3f6fe0be0938737d978f1599a31d846000681b01400a7413a8faa2949350505050565b3480156200057b57600080fd5b50620002c56200058d36600462002712565b7f88a7ca5c75456956db1e96e88ee87aca8bdad85895835c2dc76fcc96396569cf95945050505050565b348015620005c457600080fd5b506007546200048e906001600160a01b031681565b348015620005e657600080fd5b5062000216620005f83660046200278c565b62000e1f565b3480156200060b57600080fd5b50620002666200061d36600462002919565b620010db565b3480156200063057600080fd5b507f00000000000000000000000000000000000000000000000000000000000000006200048e565b3480156200066557600080fd5b506200021662000677366004620026bd565b6200116e565b3480156200068a57600080fd5b50620002166200069c36600462002977565b620011bb565b348015620006af57600080fd5b50620002c5620006c1366004620029a6565b63bc197c8160e01b95945050505050565b348015620006df57600080fd5b5062000216620011d1565b348015620006f757600080fd5b50620003f1620011f9565b3480156200070f57600080fd5b50620002666200072136600462002266565b62001295565b3480156200073457600080fd5b50620003f16200074636600462002539565b620012c6565b3480156200075957600080fd5b50620002c56200076b36600462002a61565b63f23a6e6160e01b95945050505050565b60006001600160e01b031982166223de2960e01b1480620007ad57506001600160e01b03198216633ad5cbc160e11b145b80620007c957506001600160e01b03198216630b135d3f60e11b145b80620007e557506001600160e01b03198216630a85bd0160e11b145b806200080157506001600160e01b03198216632229f29760e21b145b806200081d57506001600160e01b031982166307b04a2d60e41b145b806200082f57506200082f826200133d565b92915050565b6200083f62001374565b6000908152600560205260409020805460ff19166001179055565b630a85bd0160e11b5b949350505050565b60008281526005602052604081205460ff1615620008925750630b135d3f60e11b6200082f565b506001600160e01b031992915050565b620008ac62001374565b828114620008f75760405162461bcd60e51b815260206004820152601360248201527277726f6e67206172726179206c656e6774687360681b60448201526064015b60405180910390fd5b60005b83811015620009ae57620009998585838181106200091c576200091c62002ad1565b905060200201602081019062000933919062002539565b60008585858181106200094a576200094a62002ad1565b90506020028101906200095e919062002ae7565b8080601f016020809104026020016040519081016040528093929190818152602001838380828437600092019190915250620013ee92505050565b80620009a58162002b46565b915050620008fa565b5050505050565b620009bf62001374565b60009182526006602052604090912080546001600160a01b0319166001600160a01b03909216919091179055565b600480546040516351cff8d960e01b81526001600160a01b03848116938201939093529116906351cff8d990602401600060405180830381600087803b15801562000a3757600080fd5b505af1158015620009ae573d6000803e3d6000fd5b6001600160a01b037f000000000000000000000000000000000000000000000000000000000000000016300362000a975760405162461bcd60e51b8152600401620008ee9062002b62565b7f00000000000000000000000000000000000000000000000000000000000000006001600160a01b031662000ae260008051602062003354833981519152546001600160a01b031690565b6001600160a01b03161462000b0b5760405162461bcd60e51b8152600401620008ee9062002bae565b62000b14600080fd5b6040805160008082526020820190925262000b329183919062001463565b50565b600062000b4162001374565b62000b4d8484620015db565b905062000b5a826200171f565b9392505050565b62000b6b6200176f565b62000b7562001374565b62000b3281620017bd565b6001600160a01b037f000000000000000000000000000000000000000000000000000000000000000016300362000bcb5760405162461bcd60e51b8152600401620008ee9062002b62565b7f00000000000000000000000000000000000000000000000000000000000000006001600160a01b031662000c1660008051602062003354833981519152546001600160a01b031690565b6001600160a01b03161462000c3f5760405162461bcd60e51b8152600401620008ee9062002bae565b62000c48600080fd5b62000c568282600162001463565b5050565b6000306001600160a01b037f0000000000000000000000000000000000000000000000000000000000000000161462000cfc5760405162461bcd60e51b815260206004820152603860248201527f555550535570677261646561626c653a206d757374206e6f742062652063616c60448201527f6c6564207468726f7567682064656c656761746563616c6c00000000000000006064820152608401620008ee565b506000805160206200335483398151915290565b62000d1a62001374565b60035460408051635c08631b60e11b8152815160009384936001600160a01b039091169263b810c63692600480830193928290030181865afa15801562000d65573d6000803e3d6000fd5b505050506040513d601f19601f8201168201806040525081019062000d8b919062002bfa565b915091508147101562000dfa5760405162461bcd60e51b815260206004820152603060248201527f4c423a20696e73756666696369656e742062616c616e636520746f207061792060448201526f6b6579206164646974696f6e2066656560801b6064820152608401620008ee565b62000e05836200182a565b62000e1a6001600160a01b0382168362001897565b505050565b600054610100900460ff161580801562000e405750600054600160ff909116105b8062000e5c5750303b15801562000e5c575060005460ff166001145b62000ec15760405162461bcd60e51b815260206004820152602e60248201527f496e697469616c697a61626c653a20636f6e747261637420697320616c72656160448201526d191e481a5b9a5d1a585b1a5e995960921b6064820152608401620008ee565b6000805460ff19166001179055801562000ee5576000805461ff0019166101001790555b62000ef0836200182a565b600780546001600160a01b0319166001600160a01b03861617905560405162000f199062002115565b604051809103906000f08015801562000f36573d6000803e3d6000fd5b50600480546001600160a01b03199081166001600160a01b0393841617825560038054909116928516929092179091556040516329965a1d60e01b8152309181018290527f29ddb589b1fb5fc7cf394961c1adf5f8c6454761adf795e67fe149f658abe89560248201526044810191909152731820a4b7618bde71dce8cdc73aab6c95905fad24906329965a1d90606401600060405180830381600087803b15801562000fe257600080fd5b505af115801562000ff7573d6000803e3d6000fd5b50506040516329965a1d60e01b815230600482018190527fb281fc8c12954d22544db45de3159a39272895b169a852b314f9cc762e44c53b60248301526044820152731820a4b7618bde71dce8cdc73aab6c95905fad2492506329965a1d9150606401600060405180830381600087803b1580156200107557600080fd5b505af11580156200108a573d6000803e3d6000fd5b505050508015620010d5576000805461ff0019169055604051600181527f7f26b83ff96e1f2b6a682f133852f6798a09c465da95921460cefb38474024989060200160405180910390a15b50505050565b6000805b61010081101562001163578381610100811062001100576200110062002ad1565b6020020151805190602001208382610100811062001122576200112262002ad1565b60200201518260ff0387901c6001166002811062001144576200114462002ad1565b6020020151146200115a57600091505062000b5a565b600101620010df565b506001949350505050565b6200117862001374565b620010d5848484848080601f016020809104026020016040519081016040528093929190818152602001838380828437600092019190915250620013ee92505050565b620011c562001374565b62000c568282620019b6565b60005462010000900460ff1615620011ef57620011ed62001a1f565b565b620011ed62001a75565b60007f0000000000000000000000000000000000000000000000000000000000000000604051631aab3f0d60e11b8152306004820152600060248201526001600160a01b0391909116906335567e1a90604401602060405180830381865afa1580156200126a573d6000803e3d6000fd5b505050506040513d601f19601f8201168201806040525081019062001290919062002c22565b905090565b6000600160008381526001602052604090205460ff166002811115620012bf57620012bf62002c3c565b1492915050565b600480546040516371d4ed8d60e11b81526001600160a01b03848116938201939093526000929091169063e3a9db1a90602401602060405180830381865afa15801562001317573d6000803e3d6000fd5b505050506040513d601f19601f820116820180604052508101906200082f919062002c22565b60006001600160e01b03198216630271189760e51b14806200082f57506301ffc9a760e01b6001600160e01b03198316146200082f565b336001600160a01b037f00000000000000000000000000000000000000000000000000000000000000001614620011ed5760405162461bcd60e51b815260206004820152601c60248201527f6163636f756e743a206e6f742066726f6d20456e747279506f696e74000000006044820152606401620008ee565b600080846001600160a01b031684846040516200140c919062002c78565b60006040518083038185875af1925050503d80600081146200144b576040519150601f19603f3d011682016040523d82523d6000602084013e62001450565b606091505b509150915081620009ae57805160208201fd5b7f4910fdfa16fed3260ed0e7147f7cc6da11a60208b5b9406d12a635614ffd91435460ff1615620014995762000e1a8362001ab9565b826001600160a01b03166352d1902d6040518163ffffffff1660e01b8152600401602060405180830381865afa925050508015620014f6575060408051601f3d908101601f19168201909252620014f39181019062002c22565b60015b6200155b5760405162461bcd60e51b815260206004820152602e60248201527f45524331393637557067726164653a206e657720696d706c656d656e7461746960448201526d6f6e206973206e6f74205555505360901b6064820152608401620008ee565b600080516020620033548339815191528114620015cd5760405162461bcd60e51b815260206004820152602960248201527f45524331393637557067726164653a20756e737570706f727465642070726f786044820152681a58589b195555525160ba1b6064820152608401620008ee565b5062000e1a83838362001b58565b6000808080620015f061014087018762002ae7565b810190620015ff919062002c96565b7f19457468657265756d205369676e6564204d6573736167653a0a3332000000006000908152601c899052603c9020929550909350915062001642818362001b83565b6007546001600160a01b03908116911614620016665760019450505050506200082f565b6000836040516020016200167b919062002d15565b6040516020818303038152906040528051906020012090506200169e8162001295565b620016b2576001955050505050506200082f565b6000620016c1838787620010db565b905080620016d957600196505050505050506200082f565b620016e48262001bab565b6002546040517f70f2cfee27033ad601b5f57bab1c39f0ee4092526fe49d38faeee87900b734b590600090a250600098975050505050505050565b801562000b3257604051600090339060001990849084818181858888f193505050503d8060008114620009ae576040519150601f19603f3d011682016040523d82523d6000602084013e620009ae565b60005462010000900460ff1615620011ed5760405162461bcd60e51b815260206004820152601060248201526f14185d5cd8589b194e881c185d5cd95960821b6044820152606401620008ee565b60005b8151811015620017fa57620017f1828281518110620017e357620017e362002ad1565b602002602001015162001bab565b600101620017c0565b506002546040517f70f2cfee27033ad601b5f57bab1c39f0ee4092526fe49d38faeee87900b734b590600090a250565b60005b815181101562001867576200185e82828151811062001850576200185062002ad1565b602002602001015162001c3d565b6001016200182d565b506002546040517f89e318ed516a25dfc599105af71a8b9939ed1114a54ebf6b3b5d08c697fac2e290600090a250565b80471015620018e95760405162461bcd60e51b815260206004820152601d60248201527f416464726573733a20696e73756666696369656e742062616c616e63650000006044820152606401620008ee565b6000826001600160a01b03168260405160006040518083038185875af1925050503d806000811462001938576040519150601f19603f3d011682016040523d82523d6000602084013e6200193d565b606091505b505090508062000e1a5760405162461bcd60e51b815260206004820152603a60248201527f416464726573733a20756e61626c6520746f2073656e642076616c75652c207260448201527f6563697069656e74206d617920686176652072657665727465640000000000006064820152608401620008ee565b6004805460405163f340fa0160e01b81526001600160a01b038581169382019390935291169063f340fa019083906024016000604051808303818588803b15801562001a0157600080fd5b505af115801562001a16573d6000803e3d6000fd5b50505050505050565b62001a2962001cc6565b6000805462ff0000191690557f5db9ee0a495bf2e6ff9c91a7834c1ba4fdd244a5e8aa4e537bd38aeae4b073aa335b6040516001600160a01b03909116815260200160405180910390a1565b62001a7f6200176f565b6000805462ff00001916620100001790557f62e78cea01bee320cd4e420270b5ea74000d11b0c9f74754ebdbfc544b05a25862001a583390565b6001600160a01b0381163b62001b285760405162461bcd60e51b815260206004820152602d60248201527f455243313936373a206e657720696d706c656d656e746174696f6e206973206e60448201526c1bdd08184818dbdb9d1c9858dd609a1b6064820152608401620008ee565b6000805160206200335483398151915280546001600160a01b0319166001600160a01b0392909216919091179055565b62001b638362001d17565b60008251118062001b715750805b1562000e1a57620010d5838362001d59565b600080600062001b94858562001d81565b9150915062001ba38162001dca565b509392505050565b600160008281526001602052604090205460ff16600281111562001bd35762001bd362002c3c565b1462001c0b5760405162461bcd60e51b815260206004820152600660248201526526211d22989960d11b6044820152606401620008ee565b6000818152600160205260408120805460ff1916600290811790915580549162001c358362002d78565b919050555050565b60008181526001602052604081205460ff16600281111562001c635762001c6362002c3c565b1462001c9b5760405162461bcd60e51b815260206004820152600660248201526504c423a4531360d41b6044820152606401620008ee565b60008181526001602081905260408220805460ff19169091179055600280549162001c358362002b46565b60005462010000900460ff16620011ed5760405162461bcd60e51b815260206004820152601460248201527314185d5cd8589b194e881b9bdd081c185d5cd95960621b6044820152606401620008ee565b62001d228162001ab9565b6040516001600160a01b038216907fbc7cd75a20ee27fd9adebab32041f755214dbc6bffa90cc0225b39da2e5c2d3b90600090a250565b606062000b5a8383604051806060016040528060278152602001620033746027913962001f27565b600080825160410362001dbb5760208301516040840151606085015160001a62001dae8782858562001fa5565b9450945050505062001dc3565b506000905060025b9250929050565b600081600481111562001de15762001de162002c3c565b0362001dea5750565b600181600481111562001e015762001e0162002c3c565b0362001e505760405162461bcd60e51b815260206004820152601860248201527f45434453413a20696e76616c6964207369676e617475726500000000000000006044820152606401620008ee565b600281600481111562001e675762001e6762002c3c565b0362001eb65760405162461bcd60e51b815260206004820152601f60248201527f45434453413a20696e76616c6964207369676e6174757265206c656e677468006044820152606401620008ee565b600381600481111562001ecd5762001ecd62002c3c565b0362000b325760405162461bcd60e51b815260206004820152602260248201527f45434453413a20696e76616c6964207369676e6174757265202773272076616c604482015261756560f01b6064820152608401620008ee565b6060600080856001600160a01b03168560405162001f46919062002c78565b600060405180830381855af49150503d806000811462001f83576040519150601f19603f3d011682016040523d82523d6000602084013e62001f88565b606091505b509150915062001f9b868383876200206e565b9695505050505050565b6000807f7fffffffffffffffffffffffffffffff5d576e7357a4501ddfe92f46681b20a083111562001fde575060009050600362002065565b6040805160008082526020820180845289905260ff881692820192909252606081018690526080810185905260019060a0016020604051602081039080840390855afa15801562002033573d6000803e3d6000fd5b5050604051601f1901519150506001600160a01b0381166200205e5760006001925092505062002065565b9150600090505b94509492505050565b60608315620020e2578251600003620020da576001600160a01b0385163b620020da5760405162461bcd60e51b815260206004820152601d60248201527f416464726573733a2063616c6c20746f206e6f6e2d636f6e74726163740000006044820152606401620008ee565b508162000863565b620008638383815115620020f95781518083602001fd5b8060405162461bcd60e51b8152600401620008ee919062002d92565b61058c8062002dc883390190565b6001600160a01b038116811462000b3257600080fd5b60008083601f8401126200214c57600080fd5b5081356001600160401b038111156200216457600080fd5b60208301915083602082850101111562001dc357600080fd5b60008060008060008060008060c0898b0312156200219a57600080fd5b8835620021a78162002123565b97506020890135620021b98162002123565b96506040890135620021cb8162002123565b95506060890135945060808901356001600160401b0380821115620021ef57600080fd5b620021fd8c838d0162002139565b909650945060a08b01359150808211156200221757600080fd5b50620022268b828c0162002139565b999c989b5096995094979396929594505050565b6000602082840312156200224d57600080fd5b81356001600160e01b03198116811462000b5a57600080fd5b6000602082840312156200227957600080fd5b5035919050565b634e487b7160e01b600052604160045260246000fd5b60405161200081016001600160401b0381118282101715620022bc57620022bc62002280565b60405290565b604080519081016001600160401b0381118282101715620022bc57620022bc62002280565b604051601f8201601f191681016001600160401b038111828210171562002312576200231262002280565b604052919050565b600082601f8301126200232c57600080fd5b81356001600160401b0381111562002348576200234862002280565b6200235d601f8201601f1916602001620022e7565b8181528460208386010111156200237357600080fd5b816020850160208301376000918101602001919091529392505050565b60008060008060808587031215620023a757600080fd5b8435620023b48162002123565b93506020850135620023c68162002123565b92506040850135915060608501356001600160401b03811115620023e957600080fd5b620023f7878288016200231a565b91505092959194509250565b600080604083850312156200241757600080fd5b8235915060208301356001600160401b038111156200243557600080fd5b62002443858286016200231a565b9150509250929050565b60008083601f8401126200246057600080fd5b5081356001600160401b038111156200247857600080fd5b6020830191508360208260051b850101111562001dc357600080fd5b60008060008060408587031215620024ab57600080fd5b84356001600160401b0380821115620024c357600080fd5b620024d1888389016200244d565b90965094506020870135915080821115620024eb57600080fd5b50620024fa878288016200244d565b95989497509550505050565b600080604083850312156200251a57600080fd5b8235915060208301356200252e8162002123565b809150509250929050565b6000602082840312156200254c57600080fd5b813562000b5a8162002123565b6000806000606084860312156200256f57600080fd5b83356001600160401b038111156200258657600080fd5b840161016081870312156200259a57600080fd5b95602085013595506040909401359392505050565b60006001600160401b03821115620025cb57620025cb62002280565b5060051b60200190565b600082601f830112620025e757600080fd5b8135602062002600620025fa83620025af565b620022e7565b82815260059290921b840181019181810190868411156200262057600080fd5b8286015b848110156200263d578035835291830191830162002624565b509695505050505050565b6000602082840312156200265b57600080fd5b81356001600160401b038111156200267257600080fd5b6200086384828501620025d5565b600080604083850312156200269457600080fd5b8235620026a18162002123565b915060208301356001600160401b038111156200243557600080fd5b60008060008060608587031215620026d457600080fd5b8435620026e18162002123565b93506020850135925060408501356001600160401b038111156200270457600080fd5b620024fa8782880162002139565b6000806000806000608086880312156200272b57600080fd5b8535620027388162002123565b945060208601356200274a8162002123565b93506040860135925060608601356001600160401b038111156200276d57600080fd5b6200277b8882890162002139565b969995985093965092949392505050565b600080600060608486031215620027a257600080fd5b8335620027af8162002123565b925060208401356001600160401b03811115620027cb57600080fd5b620027d986828701620025d5565b9250506040840135620027ec8162002123565b809150509250925092565b600082601f8301126200280957600080fd5b6200281362002296565b806120008401858111156200282757600080fd5b845b81811015620028685780356001600160401b038111156200284a5760008081fd5b62002858888289016200231a565b8552506020938401930162002829565b509095945050505050565b6000601f83818401126200288657600080fd5b6200289062002296565b80614000850186811115620028a457600080fd5b855b818110156200290d578785820112620028bf5760008081fd5b620028c9620022c2565b80604083018a811115620028dd5760008081fd5b835b81811015620028f9578035845260209384019301620028df565b5050855250602090930192604001620028a6565b50909695505050505050565b600080600061404084860312156200293057600080fd5b8335925060208401356001600160401b038111156200294e57600080fd5b6200295c86828701620027f7565b9250506200296e856040860162002873565b90509250925092565b600080604083850312156200298b57600080fd5b8235620029988162002123565b946020939093013593505050565b600080600080600060a08688031215620029bf57600080fd5b8535620029cc8162002123565b94506020860135620029de8162002123565b935060408601356001600160401b0380821115620029fb57600080fd5b62002a0989838a01620025d5565b9450606088013591508082111562002a2057600080fd5b62002a2e89838a01620025d5565b9350608088013591508082111562002a4557600080fd5b5062002a54888289016200231a565b9150509295509295909350565b600080600080600060a0868803121562002a7a57600080fd5b853562002a878162002123565b9450602086013562002a998162002123565b9350604086013592506060860135915060808601356001600160401b0381111562002ac357600080fd5b62002a54888289016200231a565b634e487b7160e01b600052603260045260246000fd5b6000808335601e1984360301811262002aff57600080fd5b8301803591506001600160401b0382111562002b1a57600080fd5b60200191503681900382131562001dc357600080fd5b634e487b7160e01b600052601160045260246000fd5b60006001820162002b5b5762002b5b62002b30565b5060010190565b6020808252602c908201527f46756e6374696f6e206d7573742062652063616c6c6564207468726f7567682060408201526b19195b1959d85d1958d85b1b60a21b606082015260800190565b6020808252602c908201527f46756e6374696f6e206d7573742062652063616c6c6564207468726f7567682060408201526b6163746976652070726f787960a01b606082015260800190565b6000806040838503121562002c0e57600080fd5b8251915060208301516200252e8162002123565b60006020828403121562002c3557600080fd5b5051919050565b634e487b7160e01b600052602160045260246000fd5b60005b8381101562002c6f57818101518382015260200162002c55565b50506000910152565b6000825162002c8c81846020870162002c52565b9190910192915050565b6000806000614040848603121562002cad57600080fd5b83356001600160401b038082111562002cc557600080fd5b62002cd387838801620027f7565b945062002ce4876020880162002873565b935061402086013591508082111562002cfc57600080fd5b5062002d0b868287016200231a565b9150509250925092565b6000818382805b61010081101562002d6757825184835b600281101562002d4d57825182526020928301929091019060010162002d2c565b505050604093909301926020929092019160010162002d1c565b505050506140008201905092915050565b60008162002d8a5762002d8a62002b30565b506000190190565b602081526000825180602084015262002db381604085016020870162002c52565b601f01601f1916919091016040019291505056fe608060405234801561001057600080fd5b5061001a3361001f565b61006f565b600080546001600160a01b038381166001600160a01b0319831681178455604051919092169283917f8be0079c531659141344cd1fd0a4f28419497f9722a3daafe3b4186f6b6457e09190a35050565b61050e8061007e6000396000f3fe6080604052600436106100555760003560e01c806351cff8d91461005a578063715018a61461007c5780638da5cb5b14610091578063e3a9db1a146100be578063f2fde38b14610102578063f340fa0114610122575b600080fd5b34801561006657600080fd5b5061007a61007536600461048d565b610135565b005b34801561008857600080fd5b5061007a6101ac565b34801561009d57600080fd5b506000546040516001600160a01b0390911681526020015b60405180910390f35b3480156100ca57600080fd5b506100f46100d936600461048d565b6001600160a01b031660009081526001602052604090205490565b6040519081526020016100b5565b34801561010e57600080fd5b5061007a61011d36600461048d565b6101c0565b61007a61013036600461048d565b61023e565b61013d6102b0565b6001600160a01b0381166000818152600160205260408120805491905590610165908261030a565b816001600160a01b03167f7084f5476618d8e60b11ef0d7d3f06914655adb8793e28ff7f018d4c76d505d5826040516101a091815260200190565b60405180910390a25050565b6101b46102b0565b6101be6000610428565b565b6101c86102b0565b6001600160a01b0381166102325760405162461bcd60e51b815260206004820152602660248201527f4f776e61626c653a206e6577206f776e657220697320746865207a65726f206160448201526564647265737360d01b60648201526084015b60405180910390fd5b61023b81610428565b50565b6102466102b0565b6001600160a01b0381166000908152600160205260408120805434928392916102709084906104b1565b90915550506040518181526001600160a01b038316907f2da466a7b24304f47e87fa2e1e5a81b9831ce54fec19055ce277ca2f39ba42c4906020016101a0565b6000546001600160a01b031633146101be5760405162461bcd60e51b815260206004820181905260248201527f4f776e61626c653a2063616c6c6572206973206e6f7420746865206f776e65726044820152606401610229565b8047101561035a5760405162461bcd60e51b815260206004820152601d60248201527f416464726573733a20696e73756666696369656e742062616c616e63650000006044820152606401610229565b6000826001600160a01b03168260405160006040518083038185875af1925050503d80600081146103a7576040519150601f19603f3d011682016040523d82523d6000602084013e6103ac565b606091505b50509050806104235760405162461bcd60e51b815260206004820152603a60248201527f416464726573733a20756e61626c6520746f2073656e642076616c75652c207260448201527f6563697069656e74206d617920686176652072657665727465640000000000006064820152608401610229565b505050565b600080546001600160a01b038381166001600160a01b0319831681178455604051919092169283917f8be0079c531659141344cd1fd0a4f28419497f9722a3daafe3b4186f6b6457e09190a35050565b6001600160a01b038116811461023b57600080fd5b60006020828403121561049f57600080fd5b81356104aa81610478565b9392505050565b808201808211156104d257634e487b7160e01b600052601160045260246000fd5b9291505056fea2646970667358221220766e6d147abf3ac557009b0b996013a7895bbcab8d6ef134e96090b1f65e1f9964736f6c63430008120033360894a13ba1a3210667c828492db98dca3e2076cc3735a920a3ca505d382bbc416464726573733a206c6f772d6c6576656c2064656c65676174652063616c6c206661696c6564a26469706673582212201e79794b84e18d1b50816df928349786aaa645b69cde6d69bbfce5848b12369c64736f6c63430008120033608060405234801561001057600080fd5b5060405161043438038061043483398101604081905261002f916100d5565b61003833610069565b6001839055600280546001600160a01b0319166001600160a01b03841617905561006181610069565b505050610111565b600080546001600160a01b038381166001600160a01b0319831681178455604051919092169283917f8be0079c531659141344cd1fd0a4f28419497f9722a3daafe3b4186f6b6457e09190a35050565b80516001600160a01b03811681146100d057600080fd5b919050565b6000806000606084860312156100ea57600080fd5b835192506100fa602085016100b9565b9150610108604085016100b9565b90509250925092565b610314806101206000396000f3fe608060405234801561001057600080fd5b50600436106100575760003560e01c8063301d027a1461005c578063715018a6146100715780638da5cb5b14610079578063b810c63614610099578063f2fde38b146100bc575b600080fd5b61006f61006a366004610290565b6100cf565b005b61006f610138565b6000546040516001600160a01b0390911681526020015b60405180910390f35b600154600254604080519283526001600160a01b03909116602083015201610090565b61006f6100ca3660046102bc565b61014c565b6100d76101ca565b6001829055600280546001600160a01b0319166001600160a01b0383169081179091556040805184815260208101929092527fb2d190129c7f8c6952e604fc184b8aa257a6a1bcfc8d2b934242892af9f61cdc910160405180910390a15050565b6101406101ca565b61014a6000610224565b565b6101546101ca565b6001600160a01b0381166101be5760405162461bcd60e51b815260206004820152602660248201527f4f776e61626c653a206e6577206f776e657220697320746865207a65726f206160448201526564647265737360d01b60648201526084015b60405180910390fd5b6101c781610224565b50565b6000546001600160a01b0316331461014a5760405162461bcd60e51b815260206004820181905260248201527f4f776e61626c653a2063616c6c6572206973206e6f7420746865206f776e657260448201526064016101b5565b600080546001600160a01b038381166001600160a01b0319831681178455604051919092169283917f8be0079c531659141344cd1fd0a4f28419497f9722a3daafe3b4186f6b6457e09190a35050565b80356001600160a01b038116811461028b57600080fd5b919050565b600080604083850312156102a357600080fd5b823591506102b360208401610274565b90509250929050565b6000602082840312156102ce57600080fd5b6102d782610274565b939250505056fea2646970667358221220a3c0c42b9af4ed72a5fa5c541ffec66bcf795b75049b701faf94f515dda3172864736f6c63430008120033",
    "linkReferences": {},
    "deployedLinkReferences": {}
}